:020000040000FA
:0600000050EF29F0120090
:020006001200E6
:060008002EEF25F01200AE
:02000E000000F0
:020010000000EE
:0100120000ED
:06001800B0EF24F012001D
:02001E000900D7
:10002000BB5300003D010000380000007E5300007B
:10003000000100003D000000120000007F0F0000E2
:10004000010000000E000000B301000004000000E9
:100050001D530000000F0000610000000B53000062
:1000600095010000120000009D4C00007E0F000072
:1000700001000000F8520000610F000013000000B2
:0C008000D85200007501000020000000B4
:04008C00D9CFE6FFE3
:10009000E1CFD9FF080EE12601010529106E140EEB
:1000A000116E0E6E10C009F05EEC29F005C005F16E
:1000B000055003E10101010E046F01010B51FB0A20
:1000C00002E10CEF0EF0070A02E1F7EF0CF0010A73
:1000D00002E162EF0CF0F00A02E103EF0BF0010A1B
:1000E00002E197EF09F0070A02E139EF08F0010A8F
:1000F00002E1D0EF06F0F00A02E195EF06F0F20A15
:1001000002E1BFEF05F00F0A02E1ABEF04F0010AD4
:1001100001E152D3030A01E145D2FB0A01E130D2E9
:10012000010A01E1EBD1C90A01E1B3D1020A01E1FF
:100130004AD1070A28E0010A02E025EF0FF0020E7B
:10014000E66EE66A92EC16F0E552E552C1EC1DF05F
:100150004FEC1EF080EC16F0F9EC1AF0F3CF10F033
:10016000F4CF11F0F350F41002E125EF0FF001018C
:10017000066B0101076B0101330E0B6F0101320E9B
:100180000C6F25EF0FF0000EE66EE66A92EC16F0AB
:10019000E552E5528E0EE66E4C0EE66EE66AE66AB3
:1001A00024EC16F0E552E552E552E5520101065104
:1001B00015E1010EE66EE66A92EC16F0E552E552A4
:1001C000890EE66E4C0EE66E0C0EE66E010EE66EC5
:1001D00024EC16F0E552E552E552E5520101060520
:1001E00023E1010EE66EE66A92EC16F0E552E55266
:1001F000870EE66E4C0EE66E0C0EE66E010EE66E97
:1002000024EC16F0E552E552E552E552830EE66E17
:100210004C0EE66E0D0EE66E010EE66E24EC16F048
:10022000E552E552E552E552020E0101065D23E179
:10023000010EE66EE66A92EC16F0E552E552800E8B
:10024000E66E4C0EE66E0C0EE66E010EE66E24ECCB
:1002500016F0E552E552E552E5527D0EE66E4C0E83
:10026000E66E0E0EE66E010EE66E24EC16F0E5521A
:10027000E552E552E552030E0101065D23E1010E50
:10028000E66EE66A92EC16F0E552E552790EE66EFD
:100290004C0EE66E0C0EE66E010EE66E24EC16F0C9
:1002A000E552E552E552E552770EE66E4C0EE66EEB
:1002B0000F0EE66E010EE66E24EC16F0E552E552E6
:1002C000E552E552040E0101065D15E1010EE66EF0
:1002D000E66A92EC16F0E552E552720EE66E4C0EAE
:1002E000E66E0C0EE66E010EE66E24EC16F0E5529C
:1002F000E552E552E5520101072B41EC1BF00009E4
:1003000028E02FEC1BF0F3CF10F0F4CF11F0F350F6
:10031000F4101FE1040E0101065D18E2870EE66E7F
:100320004C0EE66E0C0E0625E66E010EE66E24EC13
:1003300016F0E552E552E552E55201010651EA6A2E
:10034000A90FE96E010EEA2208C1EFFF062B010199
:10035000076B2FEC1BF0F3CF10F0F4CF11F0F3503C
:10036000F4100BE00101066B0101076B010EE66E54
:10037000E66A92EC16F0E552E552F9EC1AF0F3CF8A
:1003800010F0F4CF11F0F350F4100AE00101340E34
:100390000B6F020EE66EE66A92EC16F0E552E5523D
:1003A00001010751106E116AD890115004E6C80E71
:1003B000105C000E115802E225EF0FF00CC10BF19A
:1003C000076BCCEF06F00101076B0101AD6B050E69
:1003D000AD5D34E20101AE6B040EAE5D24E2AE51C0
:1003E000EA6AA90FE96E010EEA22EFCF10F00101CF
:1003F000AD51040DF3CF11F0F4CF12F0270E1126FA
:10040000010E12220101AE510F011124E96E000EFE
:100410001220EA6EEF50105C03E001013C6B03D048
:100420000101AE2BD9D7040E0101AE5D04E101013B
:10043000010E3C6F03D00101AD2BC9D701013C5126
:1004400024E001010D5103E101010B6919D00D51A7
:10045000106E116AFE0E101805E1115003E1010142
:10046000FE0E0DD00D51106E116AFD0E101805E133
:10047000115003E10101FD0E02D00101FC0E0B6FD2
:100480000101010E3B6FCCEF06F00101360E24EFA7
:100490000FF00101072B020EE66EE66A92EC16F0F1
:1004A000E552E552630EE66E4C0EE66EE66AE66ACB
:1004B00024EC16F0E552E552E552E5525B0EE66E8D
:1004C0004C0EE66EE66A010EE66E24EC16F0E5527E
:1004D000E552E552E552F9EC1AF0F3CF10F0F4CF03
:1004E00011F0F350F41002E125EF0FF00101066B5B
:1004F0000101076B0101330E0B6F4BD0020EE66E4C
:10050000E66A92EC16F0E552E552C1EC1DF04FECB4
:100510001EF04FEC16F0C3EC1AF0F3CF10F0F4CF4E
:1005200011F0F350F41003E00101FE0E0B6FD5EC57
:100530001AF0F3CF10F0F4CF11F0F350F41005E0FF
:100540000101FC0E0B6F01010C69E7EC1AF0F3CF0F
:1005500010F0F4CF11F0F350F41005E00101FD0E9E
:100560000B6F01010C69F9EC1AF0F3CF10F0F4CF26
:1005700011F0F350F41002E125EF0FF05FEF0CF0F3
:10058000C1EC1DF04FEC1EF00101050E0B6F0101D7
:10059000066B020EE66EE66A92EC16F0E552E55244
:1005A00025EF0FF04D0EE66E4C0EE66EE66AE66A3B
:1005B00024EC16F0E552E552E552E5520101072B15
:1005C0000101065122E1010EE66EE66A92EC16F098
:1005D000E552E552450EE66E4C0EE66EE66A010EF9
:1005E000E66E24EC16F0E552E552E552E5527D0E3A
:1005F000E66E4C0EE66E0E0EE66E010EE66E24EC16
:1006000016F0E552E552E552E5520101060539E1E1
:10061000010EE66EE66A92EC16F0E552E552450EE2
:10062000E66E4C0EE66EE66A010EE66E24EC16F0FF
:10063000E552E552E552E552A7C110F0116A126A7F
:10064000136AA7C1E6FF11C0E6FF12C0E6FF13C0A0
:10065000E6FF0E0EE66E010EE66EFDEC14F0146E73
:10066000060EE15E1450770EE66E4C0EE66E0F0E2F
:10067000E66E010EE66E24EC16F0E552E552E55208
:10068000E55241EC1BF0000932E001010629DE6E63
:10069000DD6ADECF10F0DDCF11F0D890115004E606
:1006A000030E105C000E115821E208C110F0116A0F
:1006B000126A136A08C1E6FF11C0E6FF12C0E6FF26
:1006C00013C0E6FF0E0E0625E66E010EE66EFDEC8B
:1006D00014F0146E060EE15E145001010651EA6A30
:1006E000A70FE96E010EEA2208C1EFFF062B2FECDF
:1006F0001BF0F3CF10F0F4CF11F0F350F4100CE036
:100700000101066B0101050E0B6F020EE66EE66A33
:1007100092EC16F0E552E552F9EC1AF0F3CF10F036
:10072000F4CF11F0F350F41020E00101060503E1CD
:1007300001010A0E06D00A0E0101A703F350A825F5
:100740000101136FE8505A0802E25A0E136F13C1E9
:1007500019F10101066B0101060E0B6F020EE66E28
:10076000E66A92EC16F0E552E552C3EC1AF0F3CFCC
:1007700010F0F4CF11F0F350F4100EE0020EE66E1C
:10078000E66A92EC16F0E552E552C1EC1DF04FEC32
:100790001EF00101FE0E0B6F01010751106E116A70
:1007A000113402E325EF0FF01050E808030E115446
:1007B00002E325EF0FF0B3D2360EE66E4C0EE66E76
:1007C000E66AE66A24EC16F0E552E552E552E55297
:1007D0000101072B010106511FE1010EE66EE66AD9
:1007E00092EC16F0E552E552300EE66E4C0EE66ED7
:1007F000E66A010EE66E24EC16F0E552E552E5528B
:10080000E5525F0EE66E0F0EE66E010EE66EC3EC6D
:1008100014F0E552E552E55241EC1BF000093EE0D0
:1008200001010629E66ED950020FE96EDACFEAFF20
:10083000E552E750EE6EED6A020EDBCF10F0030ECC
:10084000DBCF11F0D890115004E6020E105C000EC0
:10085000115821E208C110F0116A126A136A08C126
:10086000E6FF11C0E6FF12C0E6FF13C0E6FF0F0E61
:100870000625E66E010EE66EFDEC14F0146E060E13
:10088000E15E145001010651EA6AA70FE96E010EFC
:10089000EA2208C1EFFF062B0101076B2FEC1BF0CA
:1008A000F3CF10F0F4CF11F0F350F4100CE0020E7F
:1008B000E66EE66A92EC16F0E552E5520101066B2F
:1008C0000101060E0B6FF9EC1AF0F3CF10F0F4CF24
:1008D00011F0F350F41018E0020EE66EE66A92ECA6
:1008E00016F0E552E5520101066BA7C114F1A7C14C
:1008F0001AF101011351010114250101186FE8CF0C
:100900001EF10101070E0B6FC3EC1AF0F3CF10F0CC
:10091000F4CF11F0F350F4100EE0020EE66EE66A2A
:1009200092EC16F0E552E552C1EC1DF04FEC1EF0D2
:100930000101FE0E0B6F01010751106E116A113497
:1009400002E325EF0FF01050E808030E115402E304
:1009500025EF0FF0E4D1220EE66E4C0EE66EE66A4D
:10096000E66A24EC16F0E552E552E552E552010143
:10097000072B0101065122E1010EE66EE66A92ECB8
:1009800016F0E552E552450EE66E4C0EE66EE66A4E
:10099000010EE66E24EC16F0E552E552E552E55202
:1009A0007D0EE66E4C0EE66E0E0EE66E010EE66EE7
:1009B00024EC16F0E552E552E552E5520101060538
:1009C00039E1010EE66EE66A92EC16F0E552E55268
:1009D000450EE66E4C0EE66EE66A010EE66E24ECFF
:1009E00016F0E552E552E552E552A7C110F0116A42
:1009F000126A136AA7C1E6FF11C0E6FF12C0E6FF44
:100A000013C0E6FF0E0EE66E010EE66EFDEC14F06E
:100A1000146E060EE15E1450770EE66E4C0EE66E16
:100A20000F0EE66E010EE66E24EC16F0E552E5526E
:100A3000E552E55241EC1BF000093CE001010629BA
:100A4000E66ED950040FE96EDACFEAFFE552E750BF
:100A5000EE6EED6A040EDBCF10F0050EDBCF11F069
:100A6000D890115004E6030E105C000E115821E2DC
:100A700008C110F0116A126A136A08C1E6FF11C0BA
:100A8000E6FF12C0E6FF13C0E6FF0E0E0625E66E77
:100A9000010EE66EFDEC14F0146E060EE15E1450CD
:100AA00001010651EA6AA70FE96E010EEA2208C1A8
:100AB000EFFF062B2FEC1BF0F3CF10F0F4CF11F06B
:100AC000F350F4100CE0020EE66EE66A92EC16F0BB
:100AD000E552E5520101066B0101070E0B6FF9ECBF
:100AE0001AF0F3CF10F0F4CF11F0F350F41020E02F
:100AF0000101060503E101010A0E06D00A0E0101FB
:100B0000A703F350A8250101166FE8505A0802E226
:100B10005A0E166F16C11CF10101080E0B6F010170
:100B2000066B020EE66EE66A92EC16F0E552E552AE
:100B3000C3EC1AF0F3CF10F0F4CF11F0F350F4102F
:100B40000EE0020EE66EE66A92EC16F0E552E55211
:100B5000C1EC1DF04FEC1EF00101FE0E0B6F010108
:100B60000751106E116A113402E325EF0FF0105097
:100B7000E808030E115402E325EF0FF0D0D0130E56
:100B8000E66E4C0EE66EE66AE66A24EC16F0E55276
:100B9000E552E552E5520101072B010106511FE123
:100BA000010EE66EE66A92EC16F0E552E552300E62
:100BB000E66E4C0EE66EE66A010EE66E24EC16F06A
:100BC000E552E552E552E5525F0EE66E0F0EE66E17
:100BD000010EE66EC3EC14F0E552E552E55241EC2D
:100BE0001BF000093EE001010629E66ED950060F10
:100BF000E96EDACFEAFFE552E750EE6EED6A060ED7
:100C0000DBCF10F0070EDBCF11F0D890115004E6C7
:100C1000020E105C000E115821E208C110F0116A9A
:100C2000126A136A08C1E6FF11C0E6FF12C0E6FFB0
:100C300013C0E6FF0F0E0625E66E010EE66EFDEC14
:100C400014F0146E060EE15E145001010651EA6ABA
:100C5000A70FE96E010EEA2208C1EFFF062B010182
:100C6000076B2FEC1BF0F3CF10F0F4CF11F0F35023
:100C7000F4100CE00101066B0101080E0B6F020E6F
:100C8000E66EE66A92EC16F0E552E552F9EC1AF0DF
:100C9000F3CF10F0F4CF11F0F350F4101AE0020E7D
:100CA000E66EE66A92EC16F0E552E5520101066B3B
:100CB000A7C117F1A7C11DF10101165101011725A7
:100CC0000101156FE8CF1BF10101010E0A6F01014F
:100CD0000B69C3EC1AF0F3CF10F0F4CF11F0F3501E
:100CE000F4100EE0020EE66EE66A92EC16F0E552A3
:100CF000E552C1EC1DF04FEC1EF00101FE0E0B6F32
:100D000001010751106E116A113402E325EF0FF053
:100D10001050E808030E115402E325EF0FF0010113
:100D20000B690101076B25EF0FF001010A512FE15B
:100D3000020EE66EE66A92EC16F0E552E552020EFD
:100D4000E66E4C0EE66EE66AE66A24EC16F0E552B4
:100D5000E552E552E5525B0EE66E4C0EE66EE66A33
:100D6000010EE66E24EC16F0E552E552E552E5522E
:100D7000F9EC1AF0F3CF10F0F4CF11F0F350F410B7
:100D800002E125EF0FF001010B6925EF0FF00101E2
:100D90003B6B01010A0E0B6F0101066B25EF0FF093
:100DA000020EE66EE66A92EC16F0E552E552E4ECCD
:100DB0001CF02AEC1DF013C100F118C101F192ECF6
:100DC0001DF020EC1EF0F40EE66E4B0EE66EE66AA9
:100DD000E66A24EC16F0E552E552E552E5520A0EB9
:100DE0000101135D0FE313C110F0116A126A136A57
:100DF00013C1E6FF11C0E6FF12C0E6FF13C0E6FF15
:100E00000E0E0ED013C110F0116A126A136A13C1CC
:100E1000E6FF11C0E6FF12C0E6FF13C0E6FF0F0EAB
:100E2000E66EE66AFDEC14F0146E060EE15E1450F8
:100E3000E80EE66E4B0EE66EE66A010EE66E24ECF8
:100E400016F0E552E552E552E5520A0E0101185D31
:100E50000FE318C110F0116A126A136A18C1E6FF95
:100E600011C0E6FF12C0E6FF13C0E6FF0E0E0ED063
:100E700018C110F0116A126A136A18C1E6FF11C096
:100E8000E6FF12C0E6FF13C0E6FF0F0EE66E010E8E
:100E9000E66EFDEC14F0146E060EE15E14500101D6
:100EA000045106E001011307010118070101046B59
:100EB000C3EC1AF0F3CF10F0F4CF11F0F350F410AC
:100EC00014E001010A0E0C6FEBEC1CF031EC1DF08C
:100ED000020EE66EE66A92EC16F0E552E55201016A
:100EE000330E0B6F0101FE0E0D6FD5EC1AF0F3CF30
:100EF00010F0F4CF11F0F350F4101BE001010A0ED2
:100F00000C6FC1EC1DF04FEC1EF0EBEC1CF031EC63
:100F10001DF0020EE66EE66A92EC16F0E552E5521E
:100F20000101330E0B6F0101FC0E0D6F0101140E58
:100F3000116FE7EC1AF0F3CF10F0F4CF11F0F3508B
:100F4000F4101BE1126A01012151E76E1218E8AE9C
:100F500002D0123403D0E750D88012540BE3040EB1
:100F6000E76E2119E8AE02D0213503D0E750D880D2
:100F7000215503E2170E215D2CE12B0E0101105DBE
:100F800028E001010A0E0C6FC1EC1DF04FEC1EF0C1
:100F900007EC1DF015EC1DF0020EE66EE66A92EC11
:100FA00016F0E552E552E7EC1AF0F3CF10F0F4CF6B
:100FB00011F0F350F41007E00101330E0B6F010143
:100FC000FD0E0D6F03D00101FD0E0B6F0101280E08
:100FD000106F2B0E0101105D24E12FEC1BF0F3CFFD
:100FE00010F0F4CF11F0F350F4101BE001010A0EE1
:100FF0000C6FC1EC1DF04FEC1EF007EC1DF015EC72
:101000001DF0020EE66EE66A92EC16F0E552E5522D
:101010000101330E0B6F0101FD0E0D6F0101290E51
:10102000106F0BEC1BF0F3CF10F0F4CF11F0F35076
:10103000F4100DE001010A0E0C6FEBEC1CF031EC2A
:101040001DF00101FB0E0B6F01011E0E126F01015D
:10105000135102E025EF0FF0020EE66EE66A92EC05
:1010600016F0E552E552EBEC1CF001010B0E24EFFB
:101070000FF0020EE66EE66A92EC16F0E552E552CB
:10108000F2EC1CF02AEC1DF014C100F118C101F1C2
:1010900092EC1DF020EC1EF0D90EE66E4B0EE66EC3
:1010A000E66AE66A24EC16F0E552E552E552E552AE
:1010B0000A0E0101145D0FE314C110F0116A126AE7
:1010C000136A14C1E6FF11C0E6FF12C0E6FF13C0A9
:1010D000E6FF0E0E0ED014C110F0116A126A136AE8
:1010E00014C1E6FF11C0E6FF12C0E6FF13C0E6FF21
:1010F0000F0EE66EE66AFDEC14F0146E060EE15E6D
:101100001450E80EE66E4B0EE66EE66A010EE66ED1
:1011100024EC16F0E552E552E552E5520A0E0101C3
:10112000185D0FE318C110F0116A126A136A18C132
:10113000E6FF11C0E6FF12C0E6FF13C0E6FF0E0E89
:101140000ED018C110F0116A126A136A18C1E6FFB6
:1011500011C0E6FF12C0E6FF13C0E6FF0F0EE66EF9
:10116000010EE66EFDEC14F0146E060EE15E1450F6
:101170000101045106E001011407010118070101F2
:10118000046BC3EC1AF0F3CF10F0F4CF11F0F3506E
:10119000F41014E001010B0E0C6FF9EC1CF031ECB3
:1011A0001DF0020EE66EE66A92EC16F0E552E5528C
:1011B0000101330E0B6F0101FE0E0D6FD5EC1AF01D
:1011C000F3CF10F0F4CF11F0F350F4101BE0010155
:1011D0000B0E0C6FC1EC1DF04FEC1EF0F9EC1CF087
:1011E00031EC1DF0020EE66EE66A92EC16F0E55266
:1011F000E5520101330E0B6F0101FC0E0D6F010171
:10120000140E116FE7EC1AF0F3CF10F0F4CF11F0D9
:10121000F350F4101BE1126A01012151E76E12181C
:10122000E8AE02D0123403D0E750D88012540BE35A
:10123000040EE76E2119E8AE02D0213503D0E75045
:10124000D880215503E2170E215D2EE12B0E0101FE
:10125000105D2AE001010B0E0C6FC1EC1DF04FEC8C
:101260001EF007EC1DF015EC1DF0020EE66EE66AAE
:1012700092EC16F0E552E552E7EC1AF0F3CF10F0DD
:10128000F4CF11F0F350F41007E00101330E0B6FAF
:101290000101FD0E0D6F03D00101FD0E0B6F010169
:1012A0000D6F0101280E106F2B0E0101105D24E15E
:1012B0002FEC1BF0F3CF10F0F4CF11F0F350F4103B
:1012C0001BE001010B0E0C6FC1EC1DF04FEC1EF08A
:1012D00007EC1DF015EC1DF0020EE66EE66A92ECCE
:1012E00016F0E552E5520101330E0B6F0101FD0EC0
:1012F0000D6F0101290E106F0101145105E001016C
:10130000185102E025EF0FF0020EE66EE66A92EC4D
:1013100016F0E552E55219C113F11AC114F11EC1BC
:1013200018F1F9EC1CF031EC1DF022EF0FF0020E79
:10133000E66EE66A92EC16F0E552E55200EC1DF01E
:101340000EEC1DF015C100F116C101F192EC1DF07B
:1013500020EC1EF0CD0EE66E4B0EE66EE66AE66AF7
:1013600024EC16F0E552E552E552E5520A0E010171
:10137000155D0FE315C110F0116A126A136A15C1E9
:10138000E6FF11C0E6FF12C0E6FF13C0E6FF0E0E37
:101390000ED015C110F0116A126A136A15C1E6FF6A
:1013A00011C0E6FF12C0E6FF13C0E6FF0F0EE66EA7
:1013B000E66AFDEC14F0146E060EE15E1450BF0EEA
:1013C000E66E4B0EE66EE66A010EE66E24EC16F053
:1013D000E552E552E552E5520A0E0101165D0FE3B2
:1013E00016C110F0116A126A136A16C1E6FF11C025
:1013F000E6FF12C0E6FF13C0E6FF0E0E0ED016C1C8
:1014000010F0116A126A136A16C1E6FF11C0E6FFF6
:1014100012C0E6FF13C0E6FF0F0EE66E010EE66E89
:10142000FDEC14F0146E060EE15E1450010104513F
:1014300006E001011507010116070101046BC3EC69
:101440001AF0F3CF10F0F4CF11F0F350F41015E0D0
:101450000101016B01C100F107EC1DF015EC1DF05D
:10146000020EE66EE66A92EC16F0E552E5520101D4
:10147000330E0B6F0101FE0E0D6FD5EC1AF0F3CF9A
:1014800010F0F4CF11F0F350F4101BE001010C0E3A
:101490000C6FC1EC1DF04FEC1EF007EC1DF015ECCD
:1014A0001DF0020EE66EE66A92EC16F0E552E55289
:1014B0000101330E0B6F0101FC0E0D6F0101140EC3
:1014C000116FE7EC1AF0F3CF10F0F4CF11F0F350F6
:1014D000F4101BE1126A01012151E76E1218E8AE07
:1014E00002D0123403D0E750D88012540BE3040E1C
:1014F000E76E2119E8AE02D0213503D0E750D8803D
:10150000215503E2170E215D2EE12B0E0101105D26
:101510002AE001010C0E0C6FC1EC1DF04FEC1EF027
:1015200007EC1DF015EC1DF0020EE66EE66A92EC7B
:1015300016F0E552E552E7EC1AF0F3CF10F0F4CFD5
:1015400011F0F350F41007E00101330E0B6F0101AD
:10155000FD0E0D6F03D00101FD0E0B6F01010D6F2C
:101560000101280E106F2B0E0101105D24E12FECFC
:101570001BF0F3CF10F0F4CF11F0F350F4101BE098
:1015800001010C0E0C6FC1EC1DF04FEC1EF007ECCE
:101590001DF015EC1DF0020EE66EE66A92EC16F0F8
:1015A000E552E5520101330E0B6F0101FD0E0D6F87
:1015B0000101290E106F1DEC1BF0F3CF10F0F4CFDA
:1015C00011F0F350F4100DE001010C0E0C6F15EC4E
:1015D0001DF007EC1DF00101FB0E0B6F01011E0E4B
:1015E000126F0101165102E025EF0FF0020EE66EB8
:1015F000E66A92EC16F0E552E55215EC1DF0010199
:101600000D0E24EF0FF0020EE66EE66A92EC16F075
:10161000E552E55200EC1DF01CEC1DF015C100F187
:1016200017C101F192EC1DF020EC1EF0CD0EE66E1C
:101630004B0EE66EE66AE66A24EC16F0E552E552D9
:10164000E552E5520A0E0101155D0FE315C110F0D8
:10165000116A126A136A15C1E6FF11C0E6FF12C0D3
:10166000E6FF13C0E6FF0E0E0ED015C110F0116A92
:10167000126A136A15C1E6FF11C0E6FF12C0E6FF49
:1016800013C0E6FF0F0EE66EE66AFDEC14F0146E72
:10169000060EE15E1450B00EE66E4B0EE66EE66A84
:1016A000010EE66E24EC16F0E552E552E552E552E5
:1016B0000A0E0101175D0FE317C110F0116A126ADB
:1016C000136A17C1E6FF11C0E6FF12C0E6FF13C0A0
:1016D000E6FF0E0E0ED017C110F0116A126A136ADF
:1016E00017C1E6FF11C0E6FF12C0E6FF13C0E6FF18
:1016F0000F0EE66E010EE66EFDEC14F0146E060E93
:10170000E15E14500101045106E0010115070101D9
:1017100017070101046BE7EC1AF0F3CF10F0F4CFD8
:1017200011F0F350F4101BE1126A01012151E76E30
:101730001218E8AE02D0123403D0E750D880125409
:101740000BE3040EE76E2119E8AE02D0213503D079
:10175000E750D880215503E2170E215D2EE12B0EB4
:101760000101105D2AE001010D0E0C6FC1EC1DF0AE
:101770004FEC1EF007EC1DF015EC1DF0020EE66EAE
:10178000E66A92EC16F0E552E552E7EC1AF0F3CF78
:1017900010F0F4CF11F0F350F41007E00101330E14
:1017A0000B6F0101FD0E0D6F03D00101FD0E0B6FDC
:1017B00001010D6F0101280E106F2B0E0101105D4C
:1017C00024E12FEC1BF0F3CF10F0F4CF11F0F35025
:1017D000F4101BE001010D0E0C6FC1EC1DF04FEC7D
:1017E0001EF007EC1DF015EC1DF0020EE66EE66A29
:1017F00092EC16F0E552E5520101330E0B6F010138
:10180000FD0E0D6F0101290E106FC3EC1AF0F3CF1E
:1018100010F0F4CF11F0F350F41015E00101016B5A
:1018200001C100F107EC1DF023EC1DF0020EE66E85
:10183000E66A92EC16F0E552E5520101330E0B6FA9
:101840000101FE0E0D6FD5EC1AF0F3CF10F0F4CFBE
:1018500011F0F350F4101BE001010D0E0C6FC1EC00
:101860001DF04FEC1EF007EC1DF023EC1DF0020EF6
:10187000E66EE66A92EC16F0E552E5520101330E8F
:101880000B6F0101FC0E0D6F0101140E116F0101B0
:10189000175104E00101155101E0D7D2020EE66EA6
:1018A000E66A92EC16F0E552E5521CC116F11DC134
:1018B00017F11BC115F107EC1DF023EC1DF0010120
:1018C000FA0EC2D2020EE66EE66A92EC16F0E5520D
:1018D000E55292EC1DF020EC1EF0A60EE66E4B0ECB
:1018E000E66E030EE66EE66A24EC16F0E552E5526B
:1018F000E552E552F5EC1EF0280E0101105D21E1E4
:10190000106A01012151E76E1018E8AE02D01034C0
:1019100003D0E750D88010540BE3040EE76E211972
:10192000E8AE02D0213503D0E750D880215503E23C
:10193000170E215D03E10101290E02D001012A0EDB
:10194000106F0101045114E001010951010B08E17C
:10195000F9EC1CF01CEC1DF00101010E096F06D022
:1019600023EC1DF0F2EC1CF00101096B0101046B8A
:10197000C3EC1AF0F3CF10F0F4CF11F0F350F410E1
:101980000FE0F9EC1CF023EC1DF00101FE0E0B6FD3
:10199000290E0101105D02E12B0E01D0280E106FFF
:1019A000F9EC1AF0F3CF10F0F4CF11F0F350F4107B
:1019B00001E14BD2F9EC1CF023EC1DF00CC10BF152
:1019C00002C100F103C101F1290E0101105D02E124
:1019D0002B0E01D0280E106F01010B51106E116AF1
:1019E000FF0E101801E1115001E12FD212D1020EA9
:1019F000E66EE66A92EC16F0E552E55292EC1DF0C6
:101A000020EC1EF0140E0101115D21E10C0E01010C
:101A10000C5D03E10101170E19D00D0E0C5D03E101
:101A20000101180E13D00A0E0C5D08E00C51106E67
:101A3000116AFF0E101805E1115003E10101150EA6
:101A400005D00B0E0C5D03E10101160E116F150E92
:101A50000101115D2CE1F40EE66E4B0EE66EE66AB6
:101A6000E66A24EC16F0E552E552E552E552E80E3E
:101A7000E66E4B0EE66EE66A010EE66E24EC16F09C
:101A8000E552E552E552E552E4EC1CF02AEC1DF07B
:101A9000D5EC1AF0F3CF10F0F4CF11F0F350F410AE
:101AA00001E192D0EBEC1CF00101160E8CD0160E69
:101AB000115D2DE1D90EE66E4B0EE66EE66AE66A22
:101AC00024EC16F0E552E552E552E552E80EE66EDA
:101AD0004B0EE66EE66A010EE66E24EC16F0E55259
:101AE000E552E552E552F2EC1CF02AEC1DF0D5EC83
:101AF0001AF0F3CF10F0F4CF11F0F350F41064E0CB
:101B0000F9EC1CF031EC1DF00101170E5CD0170E42
:101B1000115D2DE1CD0EE66E4B0EE66EE66AE66ACD
:101B200024EC16F0E552E552E552E552BF0EE66EA2
:101B30004B0EE66EE66A010EE66E24EC16F0E552F8
:101B4000E552E552E55200EC1DF00EEC1DF0D5EC2F
:101B50001AF0F3CF10F0F4CF11F0F350F41034E09A
:101B600007EC1DF015EC1DF00101180E2CD0CD0E68
:101B7000E66E4B0EE66EE66AE66A24EC16F0E55277
:101B8000E552E552E552B00EE66E4B0EE66EE66AA1
:101B9000010EE66E24EC16F0E552E552E552E552F0
:101BA0001CEC1DF000EC1DF0D5EC1AF0F3CF10F09A
:101BB000F4CF11F0F350F41007E023EC1DF007EC24
:101BC0001DF00101150E116FF9EC1AF0F3CF10F0B2
:101BD000F4CF11F0F350F41001E137D1EBEC1CF02D
:101BE00007EC1DF0F9EC1CF015EC1DF031EC1DF0CC
:101BF00023EC1DF00101140E116F0CC10BF101015A
:101C00000B51106E116AFF0E101801E1115001E125
:101C10001CD101013B6B19D1020EE66EE66A92EC13
:101C200016F0E552E552960EE66E4B0EE66EE66A4B
:101C3000E66A24EC16F0E552E552E552E5521E0E36
:101C40000101125D14E10C0E01010C5D07E10101BF
:101C5000220E126F01010A0E176F09D00A0E0C5DD9
:101C600006E101011F0E126F01010A0E146F1F0E13
:101C70000101125D20E1F2EC1CF02AEC1DF014C110
:101C800000F114C101F192EC1DF020EC1EF00101F5
:101C9000045104E0010114070101046B0101145116
:101CA0005DE1F9EC1CF031EC1DF01AC114F10101F9
:101CB000200E126F53D0200E125D20E100EC1DF0BB
:101CC0000EEC1DF015C100F116C101F192EC1DF0F2
:101CD00020EC1EF00101040506E1010115070101D8
:101CE00016070101046B0101165138E115EC1DF0D6
:101CF0000101210E126F1CC116F130D0210E125DB0
:101D00002DE100EC1DF01CEC1DF015C100F117C118
:101D100001F192EC1DF020EC1EF00101040506E13A
:101D200001011507010117070101046B010117519A
:101D300003E00101155112E123EC1DF007EC1DF049
:101D400001011E0E126F1DC117F11BC115F11EC13D
:101D500018F119C113F101010A0E0B6F220E0101D6
:101D6000125D20E11CEC1DF000EC1DF017C101F12B
:101D700017C100F192EC1DF020EC1EF001010405EA
:101D800004E1010117070101046B010117515DE135
:101D900023EC1DF007EC1DF01DC117F10101230E0E
:101DA000126F53D0230E125D20E12AEC1DF0E4ECFB
:101DB0001CF018C101F113C100F192EC1DF020ECF0
:101DC0001EF00101040506E10101180701011307D6
:101DD0000101046B0101135138E1EBEC1CF001012E
:101DE000240E126F19C113F130D0240E125D2DE1B3
:101DF0002AEC1DF0F2EC1CF018C101F114C100F145
:101E000092EC1DF020EC1EF00101040506E1010139
:101E10001807010114070101046B0101185103E0C7
:101E20000101145112E131EC1DF0F9EC1CF001013B
:101E30001E0E126F1EC118F11AC114F11BC115F14B
:101E40001CC116F101010C0E0B6F080EE15C02E2E1
:0E1E5000E16AE552E16EE552E7CFD9FF1200DC
:021E5E00D9CFDA
:101E6000E6FFE1CFD9FF040EE126DE6ADD6ADECFB0
:101E700010F0DDCF11F0126A136A11AE02D01268B1
:101E80001368D950FB0FE96EFF0EDA20EA6EEE50B0
:101E9000105CEE501158EE501258EE5013581DE2DF
:101EA000020EDB6A030EDB6A020EDBCF10F0030EBC
:101EB000DBCF11F0D890115004E6050E105C000E37
:101EC000115806E2020EDB2A030EEEE3DB2AECD702
:101ED000DF2A010ECCE3DB2ACAD7040EE15C02E262
:101EE000E16AE552E16EE552E7CFD9FF1200D9CFA2
:101EF000E6FFE1CFD9FF040EE126DE6ADD6ADECF20
:101F000010F0DDCF11F0126A136A11AE02D0126820
:101F10001368D950FB0FE96EFF0EDA20EA6EEE501F
:101F2000105CEE501158EE501258EE5013581DE24E
:101F3000020EDB6A030EDB6A020EDBCF10F0030E2B
:101F4000DBCF11F0D890115004E6EE0E105C000EBD
:101F5000115806E2020EDB2A030EEEE3DB2AECD771
:101F6000DF2A010ECCE3DB2ACAD7040EE15C02E2D1
:101F7000E16AE552E16EE552E7CFD9FF1200D9CF11
:101F8000E6FFE1CFD9FF0F0E8116FE0EDB50F00BFE
:101F900081128186010EE66EE66AE66AE66AA7DFCE
:101FA000E552E552E552E5528196010EE66EE66A8B
:101FB000E66AE66A9CDFE552E552E552E5520F0E0D
:101FC0008116FE0EDB38F00B81128186010EE66E63
:101FD000E66AE66AE66A8BDFE552E552E552E552CB
:101FE0008196010EE66EE66AE66AE66A80DFE552F1
:101FF000E552E552E552E552E7CFD9FF1200D9CFBD
:10200000E6FFE1CFD9FFE652936A190EE66EE66A63
:10201000E66AE66A6CDFE552E552E552E5520F0EDC
:102020008116F80E81160F0E8116300E81128186F0
:10203000010EE66EE66AE66AE66A59DFE552E552A7
:10204000E552E5528196010EE66EE66AE66AE66AB8
:102050004EDFE552E552E552E5520F0E8116300E85
:1020600081128186010EE66EE66AE66AE66A3FDF65
:10207000E552E552E552E5528196010EE66EE66ABA
:10208000E66AE66A34DFE552E552E552E5520F0EA4
:102090008116300E81128186010EE66EE66AE66ACE
:1020A000E66A25DFE552E552E552E5528196010EDA
:1020B000E66EE66AE66AE66A1ADFE552E552E5523E
:1020C000E5520F0E8116818A8186010EE66EE66A60
:1020D000E66AE66A0CDFE552E552E552E552819682
:1020E000010EE66EE66AE66AE66A01DFE552E5524F
:1020F000E552E552280EE66E42DFE5520C0EE66E22
:102100003EDFE552E552E552E7CFD9FF1200D9CFC5
:10211000E6FFE1CFD9FF020EE126DF6A010EDB6A9E
:1021200081940F0EE66EE66AE66AE66A98DEE5528C
:10213000E552E552E5520F0E81128186E66EE66A9F
:10214000E66AE66A8CDEE552E552E552E5520F0E8C
:102150008114E76E010EE7CFDBFF81960F0EE66E6E
:10216000E66AE66AE66A7BDEE552E552E552E5524A
:102170000F0E81128186E66EE66AE66AE66A6FDE17
:10218000E552E552E552E5520F0E8114DF6E010E65
:10219000DB50DF128196010EE66EE66AE66AE66AB9
:1021A0005EDEE552E552E552E552DF50106E020E5A
:1021B000E15C02E2E16AE552E16E1050E552E7CFE0
:1021C000D9FF1200D9CFE6FFE1CFD9FFE652DF6A8F
:1021D0009EDFDF6EDFBEFCD7DF50E552E552E7CF72
:1021E000D9FF1200D9CFE6FFE1CFD9FF0F0E81163C
:1021F000FE0EDB5081128186050EE66EE66AE66A07
:10220000E66A2DDEE552E552E552E5528196050E6D
:10221000E66EE66AE66AE66A22DEE552E552E552D5
:10222000E552E552E7CFD9FF1200D9CFE6FFE1CF63
:10223000D9FF8194050EE66EE66AE66AE66A0FDE6D
:10224000E552E552E552E552FE0EDBCFE6FFCADF6E
:10225000E552FE0EDB38F00BE66EC4DFE552E552C8
:10226000E7CFD9FF1200D9CFE6FFE1CFD9FF8184B4
:10227000050EE66EE66AE66AE66AF1DDE552E552CB
:10228000E552E552FE0EDBCFE6FFACDFE552FE0E77
:10229000DB38F00BE66EA6DFE5528194E552E7CF1E
:1022A000D9FF1200D9CFE6FFE1CFD9FFFE0EDBCF79
:1022B000E6FFD9DFE552E552E7CFD9FF1200D9CFCB
:1022C000E6FFE1CFD9FFFE0EDBCFE6FFCCDFE55224
:1022D000E552E7CFD9FF1200D9CFE6FFE1CFD9FF12
:1022E000FD0EDBCFF6FFFE0EDBCFF7FF0800F5504B
:1022F0000FE0FD0EDBCFF6FFDB2AFE0EDBCFF7FF94
:1023000001E3DB2A0800F550E66ED9DFE552E8D795
:10231000E552E7CFD9FF1200D9CFE6FFE1CFD9FFD1
:10232000E652FD0EDB500F0B106EFE0EDB50010B64
:10233000400DF3501024DF6E7F0EDF14800FDF6E30
:10234000DFCFE6FF72DFE552E552E552E7CFD9FF76
:102350001200010EE66E69DFE552E66AE66ADCDF2E
:10236000E552E5521200D9CFE6FFE1CFD9FF050EC5
:10237000E126010EF36EDB6E020EDB6A030EDB6AF2
:10238000040EDB6ADF6ADFCF10F0116A10BE11683D
:10239000FB0EDBCF12F0FC0EDBCF13F01150131845
:1023A000E8AE02D0133404D01250105C1350115810
:1023B0002DE2FD0EDBCF10F0FE0EDBCF11F0126A26
:1023C000136A11AE02D012681368D950010FE96E7A
:1023D000DACFEAFF10C00BF011C00CF012C00DF004
:1023E00013C00EF0EECF06F0EECF07F0EECF08F000
:1023F000EFCF09F095EC28F005C0EDFF04C0EDFF2C
:1024000003C0EDFF02C0EFFFDF2ABDD7010EDBCF17
:1024100010F0020EDBCF11F0030EDBCF12F0040E32
:10242000DBCF13F010C006F011C007F012C008F0A7
:1024300013C009F0050EE15C02E2E16AE552E16ECB
:10244000E552E7CFD9FF1200D9CFE6FFE1CFD9FFA0
:10245000020EE126DF6AFB0EDBCF10F0FC0EDBCFB5
:1024600011F0FD0EDBCF12F0FE0EDBCF13F010509B
:1024700011101210131005E1300EE66E20DFE55248
:10248000F4D0D950FB0FE96EFF0EDA20EA6ED89037
:10249000030EEB50000A08E6000EEE5C000EEE584C
:1024A000000EEE58000EEE5815E22D0EE66E07DF18
:1024B000E552D950FB0FE96EFF0EDA20EA6E000EEE
:1024C000EE6CEF1EEE22EF1EEE22EF1EEF22ED521B
:1024D000ED52ED52DE52070EDD6E010EDBCF10F035
:1024E000000EE76E1018E8AE02D0103403D0E750AB
:1024F000D880105401E3B9D0010EDB04146E156AC4
:1025000014BE156814C0E6FF15C0E6FF0A0EE66E9D
:10251000E66A29DFE552E552E552E55206C010F0C1
:1025200007C011F008C012F009C013F006C00BF08C
:1025300007C00CF008C00DF009C00EF0FB0EDBCF99
:1025400006F0FC0EDBCF07F0FD0EDBCF08F0FE0E31
:10255000DBCF09F0CDEC28F0065007100810091069
:1025600041E0010EDF6EDB04186E196A18BE1968AF
:1025700018C0E6FF19C0E6FF0A0EE66EE66AF3DE53
:10258000E552E552E552E55206C014F007C015F0D9
:1025900008C016F009C017F006C00BF007C00CF019
:1025A00008C00DF009C00EF0FB0EDBCF06F0FC0EEC
:1025B000DBCF07F0FD0EDBCF08F0FE0EDBCF09F01E
:1025C000CDEC28F006C010F007C011F008C012F0E2
:1025D00009C013F0300E1026000E11221222132211
:1025E000105003D0DF5004E0300EE66E68DEE55296
:1025F000010EDB04146E156A14BE156814C0E6FFE4
:1026000015C0E6FF0A0EE66EE66AADDEE552E5525B
:10261000E552E55206C010F007C011F008C012F0F4
:1026200009C013F0D950FB0FE96EFF0EDA20EA6EF5
:1026300006C00BF007C00CF008C00DF009C00EF08A
:10264000EECF06F0EECF07F0EECF08F0EFCF09F0B7
:10265000CDEC28F005C0EDFF04C0EDFF03C0EDFF99
:1026600002C0EFFF010EDB0638D7020EE15C02E28A
:10267000E16AE552E16EE552E7CFD9FF1200D9CF0A
:10268000E6FFE1CFD9FFFD0EDBCFE6FFFE0EDBCF8D
:10269000E6FF42DEE552E552D950F90FE96EFF0E32
:1026A000DA20EA6EEECFE6FFEECFE6FFEECFE6FFF2
:1026B000EFCFE6FFC9DEE552E552E552E552E552BD
:1026C000E7CFD9FF1200D9CFE6FFE1CFD9FFFD0E4A
:1026D000DBCFE6FFFE0EDBCFE6FF1EDEE552E55266
:1026E000FB0EDBCFE6FFFC0EDBCFE6FFF5DDE552B0
:1026F000E552E552E7CFD9FF1200D9CFE6FFE1CF8F
:10270000D9FFAFC110F0B0C111F0040ED89010364F
:102710001136E806FBE1410E10260F0E1122105073
:102720000101B125E96E1150B221EA6EFE0EDBCF38
:10273000EFFFB12B000EB223E552E7CFD9FF120015
:10274000D9CFE6FFE1CFD9FFE652DF6ADFCF10F045
:10275000100EE76E1018E8AE02D0E73402D0E75052
:10276000105C18E2DFCFE9FFEA6AE9BEEA68410ED1
:10277000E9260F0EEA22200EEF6EDFCFE9FFEA6AAC
:10278000E9BEEA68510EE9260F0EEA22200EEF6E2E
:10279000DF2ADCD7E552E552E7CFD9FF1200D9CFC7
:1027A000E6FFE1CFD9FFE6520F014051030A52E0A4
:1027B000010A36E0030A1AE0010A67E1E66AE66AFE
:1027C000ABDDE552E552DF6A080EDF5C0CE2DF505C
:1027D000EA6A410FE96E0F0EEA22EF50E66E6FDDF6
:1027E000E552DF2AF1D70F01010E32D0080EE66E56
:1027F000E66A92DDE552E552DF6A080EDF5C0DE223
:10280000080EDF24EA6A410FE96E0F0EEA22EF504C
:10281000E66E55DDE552DF2AF0D70F01020E18D023
:10282000E66A010EE66E78DDE552E552DF6A080ED3
:10283000DF5C0CE2DF50EA6A510FE96E0F0EEA220C
:10284000EF50E66E3CDDE552DF2AF1D70F01030EB3
:10285000406F1CD0080EE66E010EE66E5DDDE5529F
:10286000E552DF6A080EDF5C0DE2080EDF24EA6A3B
:10287000510FE96E0F0EEA22EF50E66E20DDE552B1
:10288000DF2AF0D70F01406B01D0406BE552E552D3
:10289000E7CFD9FF1200D9CFE6FFE1CFD9FFE6524B
:1028A0000F014051010A1BE0010A32E1E66AE66AC3
:1028B00033DDE552E552DF6A100EDF5C0CE2DF50DB
:1028C000EA6A410FE96E0F0EEA22EF50E66EF7DC7E
:1028D000E552DF2AF1D70F01010E406F1AD0E66AE8
:1028E000010EE66E19DDE552E552DF6A100EDF5C7F
:1028F0000CE2DF50EA6A510FE96E0F0EEA22EF5048
:10290000E66EDDDCE552DF2AF1D70F01406B01D026
:10291000406BE552E552E7CFD9FF1200D9CFE6FF71
:10292000E1CFD9FFE652E66AE66AF6DCE552E55207
:10293000DF6A100EDF5C0CE2DF50EA6A410FE96EDD
:102940000F0EEA22EF50E66EBADCE552DF2AF1D72D
:10295000E66A010EE66EE0DCE552E552DF6A100E33
:10296000DF5C0CE2DF50EA6A510FE96E0F0EEA22DB
:10297000EF50E66EA4DCE552DF2AF1D7E552E552CE
:10298000E7CFD9FF1200D9CFE6FFE1CFD9FFFE0E86
:10299000DB50010B0101AF6FB06BFD0EDB500F0B75
:1029A000B16FB26BFC0EDB500A0802E1610E05D07C
:1029B000FC0EDB500D0805E1640EF36EFC0EF3CF48
:1029C000DBFFAFC110F0B0C111F0040ED89010368B
:1029D0001136E806FBE1410E10260F0E11221050B1
:1029E0000101B125E96E1150B221EA6EFC0EDBCF78
:1029F000EFFFE552E7CFD9FF1200D9CFE6FFE1CFD5
:102A0000D9FF020EE126DF6AFE0EDB50010B010149
:102A1000AF6FB06BFD0EDB500F0BB16FB26BF90EE9
:102A2000DBCF10F0FA0EDBCF11F0FB0EDBCF12F094
:102A3000FC0EDBCF13F0105011101210131005E133
:102A4000300EE66E5ADEE552F5D0D950F90FE96E38
:102A5000FF0EDA20EA6ED890030EEB50000A08E66B
:102A6000000EEE5C000EEE58000EEE58000EEE5812
:102A700015E22D0EE66E41DEE552D950F90FE96EF2
:102A8000FF0EDA20EA6E000EEE6CEF1EEE22EF1E55
:102A9000EE22EF1EEF22ED52ED52ED52DE52070E06
:102AA000DD6E010EDBCF10F0000EE76E1018E8AE01
:102AB00002D0103403D0E750D880105401E3BAD0CC
:102AC000010EDB04146E156A14BE156814C0E6FF0F
:102AD00015C0E6FF0A0EE66EE66A45DCE552E552F1
:102AE000E552E55206C010F007C011F008C012F020
:102AF00009C013F006C00BF007C00CF008C00DF0C1
:102B000009C00EF0F90EDBCF06F0FA0EDBCF07F0AE
:102B1000FB0EDBCF08F0FC0EDBCF09F0CDEC28F08C
:102B2000065007100810091041E0010EDF6EDB04AB
:102B3000186E196A18BE196818C0E6FF19C0E6FFBA
:102B40000A0EE66EE66A0FDCE552E552E552E55202
:102B500006C014F007C015F008C016F009C017F041
:102B600006C00BF007C00CF008C00DF009C00EF055
:102B7000F90EDBCF06F0FA0EDBCF07F0FB0EDBCF52
:102B800008F0FC0EDBCF09F0CDEC28F006C010F009
:102B900007C011F008C012F009C013F0300E102663
:102BA000000E112212221322105003D0DF5004E035
:102BB000300EE66EA2DDE552010EDB04146E156ADE
:102BC00014BE156814C0E6FF15C0E6FF0A0EE66ED7
:102BD000E66AB3EC11F0E552E552E552E55206C063
:102BE00010F007C011F008C012F009C013F0D9505E
:102BF000F90FE96EFF0EDA20EA6E06C00BF007C08F
:102C00000CF008C00DF009C00EF0EECF06F0EECFCC
:102C100007F0EECF08F0EFCF09F0CDEC28F005C0BB
:102C2000EDFF04C0EDFF03C0EDFF02C0EFFF010E9A
:102C3000DB0637D7020EE15C02E2E16AE552E16EA3
:102C4000E552E7CFD9FF1200D9CFE6FFE1CFD9FF98
:102C5000FE0EDB50010B0101AF6FB06BFD0EDB50C0
:102C60000F0BB16FB26BFB0EDBCFF6FFFC0EDBCFB1
:102C7000F7FF0800F5500FE0FB0EDBCFF6FFDB2A75
:102C8000FC0EDBCFF7FF01E3DB2A0800F550E66E10
:102C900034DDE552E8D7E552E7CFD9FF12007F0EC9
:102CA000E66E4B0EE66EE66AE66ACEDFE552E55268
:102CB000E552E552790EE66E4B0EE66E090EE66EB3
:102CC000E66AC2DFE552E552E552E552720EE66E63
:102CD0004B0EE66EE66A010EE66EB6DFE552E55291
:102CE000E552E5526A0EE66E4B0EE66E090EE66E92
:102CF000010EE66EA9DFE552E552E552E5521200FB
:102D0000590EE66E4B0EE66EE66AE66A9DDFE55208
:102D1000E552E552E552010EE66EE66A03D8E55249
:102D2000E5521200D9CFE6FFE1CFD9FFE652D950E4
:102D3000FD0FE96EFF0EDA20EA6E020EEE1819E1C1
:102D4000ED5017E1480EE66E4B0EE66EE66AE66A57
:102D50007BDFE552E552E552E552480EE66E4B0E3A
:102D6000E66EE66A010EE66E6FDFE552E552E55269
:102D7000E552D950FD0FE96EFF0EDA20EA6EEE50F3
:102D8000ED100BE1480EE66E4B0EE66EE66AE66A63
:102D90005BDFE552E552E552E552D950FD0FE96E91
:102DA000FF0EDA20EA6E010EEE180EE1ED500CE196
:102DB000480EE66E4B0EE66EE66A010EE66E44DFE6
:102DC000E552E552E552E552E552E552E7CFD9FF2B
:022DD0001200EF
:0E2DD2000F0E946E82681200070E9410946E1D
:102DE000DF0E9414946E82681200D9CFE6FFE1CF13
:102DF000D9FF040EE126DE6ADD6ADECF10F0DDCFFA
:102E000011F0D890115004E6040E105C000E115819
:102E100001E390D0DECFE9FFDDCFEAFF5D0EE926CA
:102E2000010EEA22EF1C826E020EDB6A030EDB6AE1
:102E3000020EDBCF10F0030EDBCF11F0D890115053
:102E400004E6040E105C000E11586EE2020EDBCF99
:102E5000E9FF030EDBCFEAFF610EE926010EEA224D
:102E6000EF5082143FE1DECF14F0DDCF15F0D890A3
:102E700014361536D89014361536020EDB5014244D
:102E8000E96E030EDB501520EA6ED890E936EA367B
:102E90003D0EE926010EEA22EECF12F0EFCF13F03D
:102EA000010E1226000E1322DECF10F0DDCF11F03E
:102EB000D89010361136D89010361136020EDB50ED
:102EC0001024E96E030EDB501120EA6ED890E9362B
:102ED000EA363D0EE926010EEA2212C0EEFF13C0CB
:102EE000EDFF1BD0DECF10F0DDCF11F0D890103603
:102EF0001136D89010361136020EDB501024E96ED0
:102F0000030EDB501120EA6ED890E936EA363D0E0A
:102F1000E926010EEA22EE6AED6A020EDB2A030EB2
:102F200001E286D7DB2A84D7DF2A010E01E265D7CA
:102F3000DB2A63D7040EE15C02E2E16AE552E16E4E
:102F4000E552E7CFD9FF1200D9CFE6FFE1CFD9FF95
:102F5000040EE126DE6ADD6ADECF10F0DDCF11F06F
:102F6000D890115004E6020E105C000E115801E3D7
:102F700091D0DECFE9FFDDCFEAFF5D0EE926010E3D
:102F8000EA22EF1C8214826E020EDB6A030EDB6AF9
:102F9000020EDBCF10F0030EDBCF11F0D8901150F2
:102FA00004E6040E105C000E11586EE2020EDBCF38
:102FB000E9FF030EDBCFEAFF610EE926010EEA22EC
:102FC000EF5082143FE1DECF14F0DDCF15F0D89042
:102FD00014361536D89014361536020EDB501424EC
:102FE000E96E030EDB501520EA6ED890E936EA361A
:102FF0003D0EE926010EEA22EECF12F0EFCF13F0DC
:10300000010E1226000E1322DECF10F0DDCF11F0DC
:10301000D89010361136D89010361136020EDB508B
:103020001024E96E030EDB501120EA6ED890E936C9
:10303000EA363D0EE926010EEA2212C0EEFF13C069
:10304000EDFF1BD0DECF10F0DDCF11F0D8901036A1
:103050001136D89010361136020EDB501024E96E6E
:10306000030EDB501120EA6ED890E936EA363D0EA9
:10307000E926010EEA22EE6AED6A020EDB2A030E51
:1030800001E286D7DB2A84D7DF2A010E01E264D76A
:10309000DB2A62D7040EE15C02E2E16AE552E16EEE
:1030A000E552E7CFD9FF1200D9CFE6FFE1CFD9FF34
:1030B000040EE126DE6ADD6A020EDB6A030EDB6ABD
:1030C00001015D1D8214826E020EDB6A030EDB6A53
:1030D000020EDBCF10F0030EDBCF11F0D8901150B1
:1030E00004E6040E105C000E11586EE2020EDBCFF7
:1030F000E9FF030EDBCFEAFF610EE926010EEA22AB
:10310000EF5082143FE1DECF14F0DDCF15F0D89000
:1031100014361536D89014361536020EDB501424AA
:10312000E96E030EDB501520EA6ED890E936EA36D8
:103130003D0EE926010EEA22EECF12F0EFCF13F09A
:10314000010E1226000E1322DECF10F0DDCF11F09B
:10315000D89010361136D89010361136020EDB504A
:103160001024E96E030EDB501120EA6ED890E93688
:10317000EA363D0EE926010EEA2212C0EEFF13C028
:10318000EDFF1BD0DECF10F0DDCF11F0D890103660
:103190001136D89010361136020EDB501024E96E2D
:1031A000030EDB501120EA6ED890E936EA363D0E68
:1031B000E926010EEA22EE6AED6A020EDB2A030E10
:1031C00001E286D7DB2A84D7040EE15C02E2E16AE1
:1031D000E552E16EE552E7CFD9FF1200D9CFE6FF05
:1031E000E1CFD9FF040EE126DE6ADD6A020EDB6A5A
:1031F000030EDB6A010EDE6EDD6ADECFE9FFDDCF96
:10320000EAFF5D0EE926010EEA22EF1C8214826EAF
:10321000020EDB6A030EDB6A020EDBCF10F0030E38
:10322000DBCF11F0D890115004E6030E105C000EB5
:1032300011586EE2020EDBCFE9FF030EDBCFEAFF8F
:10324000610EE926010EEA22EF5082143FE1DECF43
:1032500014F0DDCF15F0D89014361536D89014360A
:103260001536020EDB501424E96E030EDB501520D8
:10327000EA6ED890E936EA363D0EE926010EEA22DA
:10328000EECF12F0EFCF13F0010E1226000E132234
:10329000DECF10F0DDCF11F0D89010361136D89077
:1032A00010361136020EDB501024E96E030EDB508F
:1032B0001120EA6ED890E936EA363D0EE926010E75
:1032C000EA2212C0EEFF13C0EDFF1BD0DECF10F0DC
:1032D000DDCF11F0D89010361136D8901036113657
:1032E000020EDB501024E96E030EDB501120EA6E53
:1032F000D890E936EA363D0EE926010EEA22EE6A5A
:10330000ED6A020EDB2A030E01E286D7DB2A84D7A0
:10331000040EE15C02E2E16AE552E16EE552E7CFBC
:10332000D9FF1200D9CFE6FFE1CFD9FF040EE12685
:10333000DE6ADD6ADECF10F0DDCF11F0FD0EDBCFEF
:1033400012F0FE0EDBCF13F011501318E8AE02D0CE
:10335000133404D01250105C135011581DE2020EA9
:10336000DB6A030EDB6A020EDBCF10F0030EDBCF4D
:1033700011F0D890115004E6EE0E105C000E1158BA
:1033800006E2020EDB2A030EEEE3DB2AECD7DF2A8D
:10339000010ED0E3DB2ACED7040EE15C02E2E16A43
:1033A000E552E16EE552E7CFD9FF1200D9CFE6FF33
:1033B000E1CFD9FF040EE126DE6ADD6ADECF10F030
:1033C000DDCF11F0D890115004E6040E105C000E11
:1033D000115875E2DECFE9FFDDCFEAFF5D0EE92689
:1033E000010EEA22EF1C826E020EDB6A030EDB6A1C
:1033F000020EDBCF10F0030EDBCF11F0D89011508E
:1034000004E6040E105C000E11584AE2DECF10F004
:10341000DDCF11F0D89010361136D8901036113615
:10342000020EDB501024E96E030EDB501120EA6E11
:10343000D890E936EA363D0EE926010EEA22EE6A18
:10344000ED6A020EDBCFE9FF030EDBCFEAFF610E70
:10345000E926010EEA22EF5082141CE1DECF10F0C3
:10346000DDCF11F0D89010361136D89010361136C5
:10347000020EDB501024E96E030EDB501120EA6EC1
:10348000D890E936EA363D0EE926010EEA22010E11
:10349000EE6EED6A020EDB2A030EAAE3DB2AA8D742
:1034A0008250816EE80EE66E030EE66E3BDFE5525B
:1034B000E552DF2A010E01E281D7DB2A7FD7040E15
:1034C000E15C02E2E16AE552E16EE552E7CFD9FF45
:1034D0001200D9CFE6FF040EE12684B005D0010129
:1034E0003D2B000E3E2303D001013D6B3E6B84B2A9
:1034F00004D03F2B000E402302D03F6B406B84B4BE
:1035000004D0412B000E422302D0416B426B82B0AB
:1035100004D0432B000E442302D0436B446B82B291
:1035200004D0452B000E462302D0456B466B82B477
:1035300004D0472B000E482302D0476B486B82BA59
:1035400004D0492B000E4A2302D0496B4A6B81B04C
:1035500004D04B2B000E4C2302D04B6B4C6B040E53
:10356000E15C02E2E16AE552E16EE552E7CFD9FFA4
:103570001200070E9610966E270E9410946E010E90
:103580009310936E12000101010E431904E144519E
:1035900002E1010E01D0000E106E116A10BE11681A
:1035A00010C0F3FF11C0F4FF12000101010E4B190E
:1035B00004E14C5102E1010E01D0000E106E116ABF
:1035C00010BE116810C0F3FF11C0F4FF120001011A
:1035D000010E531904E1545102E1010E01D0000E15
:1035E000106E116A10BE116810C0F3FF11C0F4FF15
:1035F00012000101010E591904E15A5102E1010EB4
:1036000001D0000E106E116A10BE116810C0F3FFD9
:1036100011C0F4FF12000101010E3D1904E13E51F9
:1036200002E1010E01D0000E106E116A10BE116889
:1036300010C0F3FF11C0F4FF12000101010E411987
:1036400004E1425102E1010E01D0000E106E116A38
:1036500010BE116810C0F3FF11C0F4FF1200010189
:10366000010E551904E1565102E1010E01D0000E80
:10367000106E116A10BE116810C0F3FF11C0F4FF84
:103680001200D9CFE6FFE1CFD9FFE652DF6A100E74
:10369000DF5C1AE2EA6ADF34FE0BEA36E96E3D0EC1
:1036A000E926010EEA22010EEE180CE1ED500AE1C6
:1036B000DF50EA6A650FE96E010EEA22EFCF08F1EA
:1036C000010E03D0DF2AE3D7000EE552E552E7CF23
:0436D000D9FF12000C
:0C36D400D9CFE6FFE1CFD9FF040EE126BC
:1036E000DE6ADD6ADECF10F0DDCF11F0FD0EDBCF3C
:1036F00012F0FE0EDBCF13F011501318E8AE02D01B
:10370000133404D01250105C135011581DE2020EF5
:10371000DB6A030EDB6A020EDBCF10F0030EDBCF99
:1037200011F0D890115004E6EE0E105C000E115806
:1037300006E2020EDB2A030EEEE3DB2AECD7DF2AD9
:10374000010ED0E3DB2ACED7040EE15C02E2E16A8F
:10375000E552E16EE552E7CFD9FF1200956A836A20
:10376000926A806A966A846A1200D9CFE6FFE1CF36
:10377000D9FFFE0EDBCF11F0800E11141AE1FD0E01
:10378000DBCF12F0FE0EDBCF13F0133404E2125045
:103790000708000E13540DE3FD0EDBCFE9FFFE0E0C
:1037A000DBCFEAFF950EE926010EEA22EF508010EA
:1037B000806EE552E7CFD9FF1200D9CFE6FFE1CF07
:1037C000D9FFFE0EDBCF11F0800E11141AE1FD0EB1
:1037D000DBCF12F0FE0EDBCF13F0133404E21250F5
:1037E0000308000E13540DE3FD0EDBCFE9FFFE0EC0
:1037F000DBCFEAFF950EE926010EEA22EF50841096
:10380000846EE552E7CFD9FF1200D9CFE6FFE1CFB2
:10381000D9FFFE0EDBCF11F0800E11141AE1FD0E60
:10382000DBCF12F0FE0EDBCF13F0133404E21250A4
:103830000708000E13540DE3FD0EDBCFE9FFFE0E6B
:10384000DBCFEAFF950EE926010EEA22EF50831046
:10385000836EE552E7CFD9FF1200D9CFE6FFE1CF63
:10386000D9FFFE0EDBCF11F0800E11141AE1FD0E10
:10387000DBCF12F0FE0EDBCF13F0133404E2125054
:103880000708000E13540DE3FD0EDBCFE9FFFE0E1B
:10389000DBCFEAFF950EE926010EEA22EF1C831426
:1038A000836EE552E7CFD9FF1200D9CFE6FFE1CF13
:1038B000D9FFFE0EDBCF11F0800E11141AE1FD0EC0
:1038C000DBCF12F0FE0EDBCF13F0133404E2125004
:1038D0000708000E13540DE3FD0EDBCFE9FFFE0ECB
:1038E000DBCFEAFF950EE926010EEA22EF1C8014D9
:1038F000806EE552E7CFD9FF1200D9CFE6FFE1CFC6
:10390000D9FFFE0EDBCF11F0800E11141AE1FD0E6F
:10391000DBCF12F0FE0EDBCF13F0133404E21250B3
:103920000308000E13540DE3FD0EDBCFE9FFFE0E7E
:10393000DBCFEAFF950EE926010EEA22EF1C841484
:10394000846EE552E7CFD9FF1200D9CFE6FFE1CF71
:10395000D9FF020EE126DE6ADD6ADECF10F0DDCF90
:1039600011F0D890115004E60E0E105C000E1158A4
:1039700021E2DECFE6FFDDCFE6FF47DFE552E5528D
:10398000F40EE66E010EE66EA5DEE552E552DECFE0
:10399000E6FFDDCFE6FF61DFE552E552F40EE66EAD
:1039A000010EE66E97DEE552E552DF2A010ED5E301
:1039B000DB2AD3D7020EE15C02E2E16AE552E16E56
:1039C000E552E7CFD9FF1200000EE66EE66AF5DE9B
:1039D000E552E5521200000EE66EE66A8EDFE55211
:1039E000E5521200020EE66EE66ABFDEE552E552CF
:1039F0001200020EE66EE66A58DFE552E55212004A
:103A0000070EE66EE66A01DFE552E5521200070E88
:103A1000E66EE66A22DFE552E5521200010EE66E1E
:103A2000E66AA3DEE552E5521200010EE66EE66A92
:103A30003CDFE552E5521200030EE66EE66A95DEC3
:103A4000E552E5521200030EE66EE66A2EDFE552FD
:103A5000E5521200060EE66EE66AD7DEE552E55242
:103A60001200060EE66EE66AF8DEE552E552120036
:103A7000D9CFE6FFE1CFD9FF040EE126DE6ADD6A89
:103A8000DECF10F0DDCF11F0D890115004E6080E13
:103A9000105C000E11583CE2FE0EDBCFE6FF010E7B
:103AA000DF5206E0DFCFF3FFE846FE0BF306FCE152
:103AB000E552E714E66ED950020FE96EDACFEAFF5D
:103AC000E552E750EE6EED6AD950020FE96EDACF9B
:103AD000EAFFEE50ED1005E0000EE66EE66A95DEB8
:103AE00004D0000EE66EE66AB8DEE552E552010E3D
:103AF000E66EE66AB2DEE552E552010EE66EE66A71
:103B000084DEE552E552DF2A010EBAE3DB2AB8D79C
:103B1000040EE15C02E2E16AE552E16EE552E7CFB4
:103B2000D9FF12000A0E106E0E6E00C109F05EEC95
:103B300029F00550EA6A9D0FE96E010EEA22EF5066
:103B4000E66E96DFE5520A0E106E0E6E00C109F0A9
:103B50005EEC29F00950EA6A9D0FE96E010EEA2237
:103B6000EF50E66E85DFE552020EE66EE66A75DE20
:103B7000E552E552020EE66EE66A47DEE552E55290
:103B8000120000C102F10101006B1200D9CFE6FF63
:103B9000E1CFD9FF040EE126DE6ADD6ADECF10F048
:103BA000DDCF11F0D890115004E6080E105C000E25
:103BB00011583CE2FE0EDBCFE6FF010EDF5206E0BD
:103BC000DFCFF3FFE846FE0BF306FCE1E552E71416
:103BD000E66ED950020FE96EDACFEAFFE552E75000
:103BE000EE6EED6AD950020FE96EDACFEAFFEE50C1
:103BF000ED1005E0030EE66EE66A07DE04D0030E64
:103C0000E66EE66A2ADEE552E552040EE66EE66AE4
:103C100024DEE552E552040EE66EE66AF6DDE55274
:103C2000E552DF2A010EBAE3DB2AB8D7040EE15CC5
:103C300002E2E16AE552E16EE552E7CFD9FF1200F8
:103C40000A0E106E0E6E01C109F05EEC29F00550EF
:103C5000EA6A9D0FE96E010EEA22EF50E66E96DFEA
:103C6000E5520A0E106E0E6E01C109F05EEC29F0ED
:103C70000950EA6A9D0FE96E010EEA22EF50E66EE6
:103C800085DFE552050EE66EE66AE7DDE552E552B0
:103C9000050EE66EE66AB9DDE552E552120001C195
:083CA00003F10101016B1200A8
:083CA800D9CFE6FFE1CFD9FFFF
:103CB000020EE126DE6ADD6A18D8E80EE66E030E13
:103CC000E66E6AEC1BF0E552E55201018051FDE021
:103CD000806BF5EC16F00BDA46EC00F092EC1DF080
:103CE00020EC1EF08EEC14F0F0D7AEEC1BF0FFECE5
:103CF0000FF0E9EC16F0A8EC24F0A9EC11F0A0EC20
:103D000013F0F40EE66E010EE66E6AEC1BF0E5525F
:103D1000E552570EE66E120EE66EFAEC20F0E55212
:103D2000E552660EE66EB70EE66E5DEC22F0E552E9
:103D3000E552020EE66EE66A38EC23F0E552E552F3
:103D4000320EE66EE66A69EC23F0E552E552D2EFF8
:103D500023F00101140E1F6F01010D0E206F0101F0
:103D6000170E216F0101030E226F0101236F010164
:103D7000010E246F0101170E256F1FC1E6FFE66AD1
:103D800068EC24F0E552E55220C1E6FF010EE66E34
:103D900068EC24F0E552E55221C1E6FF020EE66E22
:103DA00068EC24F0E552E55222C1E6FF030EE66E10
:103DB00068EC24F0E552E55223C1E6FF040EE66EFE
:103DC00068EC24F0E552E55224C1E6FF050EE66EEC
:103DD00068EC24F0E552E55225C1E6FF060EE66EDA
:103DE00068EC24F0E552E55212000A0E146E0E6ED5
:103DF00023C109F091EC27F009C010F0116A126A92
:103E0000136A10AE03D011681268136810C0E6FF81
:103E100011C0E6FF12C0E6FF13C0E6FFE66A010E1E
:103E2000E66EFDEC14F0156E060EE15E155023C132
:103E300009F00A0E0E6E91EC27F005C010F0116A21
:103E4000126A136A10AE03D011681268136810C0AA
:103E5000E6FF11C0E6FF12C0E6FF13C0E6FF010E49
:103E6000E66EE66EFDEC14F0146E060EE15E145084
:103E7000460EE66E4B0EE66E020EE66E010EE66E26
:103E800024EC16F0E552E552E552E5520A0E146EA6
:103E90000E6E24C109F091EC27F009C010F0116AF0
:103EA000126A136A10AE03D011681268136810C04A
:103EB000E6FF11C0E6FF12C0E6FF13C0E6FF030EE7
:103EC000E66E010EE66EFDEC14F0156E060EE15E78
:103ED000155024C109F00A0E0E6E91EC27F005C0B2
:103EE00010F0116A126A136A10AE03D011681268DA
:103EF000136810C0E6FF11C0E6FF12C0E6FF13C052
:103F0000E6FF040EE66E010EE66EFDEC14F0146E94
:103F1000060EE15E1450460EE66E4B0EE66E050E82
:103F2000E66E010EE66E24EC16F0E552E552E5521F
:103F3000E5520A0E146E0E6E25C109F091EC27F0C1
:103F400009C010F0116A126A136A10AE03D011682A
:103F50001268136810C0E6FF11C0E6FF12C0E6FF4A
:103F600013C0E6FF060EE66E010EE66EFDEC14F0E1
:103F7000156E060EE15E155025C109F00A0E0E6E93
:103F800091EC27F005C010F0116A126A136A10AEA6
:103F900003D011681268136810C0E6FF11C0E6FF75
:103FA00012C0E6FF13C0E6FF070EE66E010EE66ED6
:103FB000FDEC14F0146E060EE15E14500A0E146E41
:103FC0000E6E21C109F091EC27F009C010F0116AC2
:103FD000126A136A10AE03D011681268136810C019
:103FE000E6FF11C0E6FF12C0E6FF13C0E6FF0B0EAE
:103FF000E66E010EE66EFDEC14F0156E060EE15E47
:10400000155021C109F00A0E0E6E91EC27F005C083
:1040100010F0116A126A136A10AE03D011681268A8
:10402000136810C0E6FF11C0E6FF12C0E6FF13C020
:10403000E6FF0C0EE66E010EE66EFDEC14F0146E5B
:10404000060EE15E1450440EE66E4B0EE66E0D0E4B
:10405000E66E010EE66E24EC16F0E552E552E552EE
:10406000E5520A0E146E0E6E20C109F091EC27F095
:1040700009C010F0116A126A136A10AE03D01168F9
:104080001268136810C0E6FF11C0E6FF12C0E6FF19
:1040900013C0E6FF0E0EE66E010EE66EFDEC14F0A8
:1040A000156E060EE15E155020C109F00A0E0E6E67
:1040B00091EC27F005C010F0116A126A136A10AE75
:1040C00003D011681268136810C0E6FF11C0E6FF44
:1040D00012C0E6FF13C0E6FF0F0EE66E010EE66E9D
:1040E000FDEC14F0146E060EE15E14501200E66A48
:1040F00083EC24F0E55201011F6F010EE66E83ECA4
:1041000024F0E5520101206F020EE66E83EC24F0EC
:10411000E5520101216F030EE66E83EC24F0E552B7
:104120000101226F040EE66E83EC24F0E5520101DA
:10413000236F050EE66E83EC24F0E5520101246F37
:10414000060EE66E83EC24F0E5520101256F1200A5
:10415000D9CFE6FFE1CFD9FF030EE126020EDB6ADD
:10416000DF6A050EDF5C38E2010EF36E020EF3CF5C
:10417000DBFF010EDB6A040EF36E010EDBCFF4FFF2
:10418000F350F45C22E2010EDB50EA6AA90FE96EFB
:10419000010EEA22EFCF10F0DF50040DF3CF11F043
:1041A000F4CF12F0270E1126010E1222010EDB5061
:1041B0001124E96E000E1220EA6EEF50105C02E04E
:1041C000020EDB6A010EDB2AD6D7020EDB0402E107
:1041D000DF2804D0DF2AC5D7020EDB50106E030E95
:1041E000E15C02E2E16AE552E16E1050E552E7CF90
:0441F000D9FF1200E1
:0C41F400D9CFE6FFE1CFD9FFD59EFD0E2C
:10420000DBCF75F1FE0EDBCF76F1D59C1368146819
:10421000156A75C116F076C117F0186A1650135C4E
:10422000106E17501458116E18501558126E0C6AF3
:10423000010E0D6E0E6A10C007F011C008F012C01A
:1042400009F0D1EC27F00350D66E13681468156A94
:1042500075C116F076C117F0186A1650135C106E0F
:1042600017501458116E18501558126E0C6A010E22
:104270000D6E0E6A10C007F011C008F012C009F0F0
:10428000D1EC27F007C010F008C011F009C012F0FF
:104290000750D76ED59AD586F28AF294F184D58EDE
:1042A000E552E7CFD9FF1200D59E120013681468BB
:1042B000156A75C116F076C117F0186A1650135CAE
:1042C000106E17501458116E18501558126E0C6A53
:1042D000010E0D6E0E6A10C007F011C008F012C07A
:1042E00009F0D1EC27F00350D66E13681468156AF4
:1042F00075C116F076C117F0186A1650135C106E6F
:1043000017501458116E18501558126E0C6A010E81
:104310000D6E0E6A10C007F011C008F012C009F04F
:10432000D1EC27F007C010F008C011F009C012F05E
:104330000750D76ED58E1200D9CFE6FFE1CFD9FF57
:10434000CD90FD0EDBCF77F1FE0EDBCF78F1136859
:104350001468156A77C116F078C117F0186A1650FC
:10436000135C106E17501458116E18501558126EB9
:104370000C6A010E0D6E0E6A10C007F011C008F035
:1043800012C009F0D1EC27F00750CF6E1368146803
:10439000156A77C116F078C117F0186A1650135CC9
:1043A000106E17501458116E18501558126E0C6A72
:1043B000010E0D6E0E6A10C007F011C008F012C099
:1043C00009F0D1EC27F003C010F004C011F005C0D3
:1043D00012F00350CE6E9D809E909F90CD8ECD8C1E
:1043E000CD98CD9ACD96CD92CD80E552E7CFD9FF2D
:1043F000120013681468156A77C116F078C117F0B7
:10440000186A1650135C106E17501458116E18501D
:104410001558126E0C6A010E0D6E0E6A10C007F070
:1044200011C008F012C009F0D1EC27F00750CF6E90
:1044300013681468156A77C116F078C117F0186A06
:104440001650135C106E17501458116E18501558F2
:10445000126E0C6A010E0D6E0E6A10C007F011C0CC
:1044600008F012C009F0D1EC27F003C010F004C02E
:1044700011F005C012F00350CE6ECD801200CD9029
:104480001200D9CFE6FFE1CFD9FFCA94CC6AFE0E65
:10449000DB500101796F7A6BCB6E9D829E929F9269
:1044A000CA90CA92CA84E552E7CFD9FF120079C1F7
:1044B000CBFFCA841200CA941200D9CFE6FFE1CF25
:1044C000D9FFB190FD0EDBCF7BF1FE0EDBCF7CF18F
:1044D00013681468156A7BC116F07CC117F0186A5E
:1044E0001650135C106E17501458116E1850155852
:1044F000126E0C6A010E0D6E0E6A10C007F011C02C
:1045000008F012C009F0D1EC27F00750B36E136821
:104510001468156A7BC116F07CC117F0186A165032
:10452000135C106E17501458116E18501558126EF7
:104530000C6A010E0D6E0E6A10C007F011C008F073
:1045400012C009F0D1EC27F003C010F004C011F044
:1045500005C012F00350B26EA082A192A292B18E59
:10456000B198B19AB192B180E552E7CFD9FF12006C
:1045700013681468156A7BC116F07CC117F0186ABD
:104580001650135C106E17501458116E18501558B1
:10459000126E0C6A010E0D6E0E6A10C007F011C08B
:1045A00008F012C009F0D1EC27F00350B26E136886
:1045B0001468156A7BC116F07CC117F0186A165092
:1045C000135C106E17501458116E18501558126E57
:1045D0000C6A010E0D6E0E6A10C007F011C008F0D3
:1045E00012C009F0D1EC27F007C010F008C011F09C
:1045F00009C012F00750B36EB1801200B1901200E2
:104600000101852B000E86238D51855D8E518659C3
:1046100004E3856B866B010E7D6F12000101872B11
:10462000000E88238F51875D9051885904E3876B72
:10463000886B010E7E6F12000101892B000E8A2308
:104640009151895D92518A5904E3896B8A6B010EFD
:104650007F6F120001018B2B000E8C2393518B5D19
:1046600094518C5904E38B6B8C6B010E806F12009C
:10467000D9CFE6FFE1CFD9FFFD0EDBCF8DF1FE0EE6
:10468000DBCF8EF10101856B866B7D6BE552E7CF49
:10469000D9FF1200D9CFE6FFE1CFD9FFFD0EDBCF66
:1046A0008FF1FE0EDBCF90F1050E0D6E0E6A8FC1FD
:1046B00008F090C109F0ABEC27F008C08FF109C0F9
:1046C00090F10101876B886B7E6BE552E7CFD9FFD4
:1046D0001200D9CFE6FFE1CFD9FFFD0EDBCF93F17A
:1046E000FE0EDBCF94F10A0E0D6E0E6A93C108F038
:1046F00094C109F0ABEC27F008C093F109C094F124
:1047000001018B6B8C6B806BE552E7CFD9FF1200F8
:10471000D9CFE6FFE1CFD9FF020EE126FE0EDB5036
:104720000F0BDF6EFE0EDB380F0B0A0D010EF3CF01
:10473000DBFFDB50DF24106E020EE15C02E2E16A77
:10474000E552E16E1050E552E7CFD9FF1200D9CF04
:10475000E6FFE1CFD9FF020EE1260A0E106E0E6EC3
:10476000FE0EDBCF09F05EEC29F00550DF6E0A0E7D
:10477000106E0E6EFE0EDBCF09F05EEC29F00950D4
:10478000100D010EF3CFDBFFDB50DF24106E020EA5
:10479000E15C02E2E16AE552E16E1050E552E7CFDA
:1047A000D9FF1200949694981200D9CFE6FFE1CF7A
:1047B000D9FFE652DF6AFE0EDB50DF5C02E2DF2A41
:1047C000FAD7E552E552E7CFD9FF120082A8000CD4
:1047D000010C0F017F5102E08288828682988296C6
:1047E000010E7F6F12008298828682880F017F6B94
:1047F0001200D9CFE6FFE1CFD9FF020EE126DF6A32
:10480000DFCF10F0080EE76E1018E8AE02D0E734E4
:1048100002D0E750105C0FE2FE0EDBBE02D08298A1
:1048200001D0828882868296DB50020DFE0EF3CF85
:10483000DBFFDF2AE5D794888286C8DFE76E010EAA
:10484000E7CFDBFF82969498DB50106E020EE15C9E
:1048500002E2E16AE552E16E1050E552E7CFD9FF7E
:104860001200D9CFE6FFE1CFD9FF020EE126DF6AC1
:104870009488010EDB6ADBCF10F0080EE76E10188B
:10488000E8AE02D0E73402D0E750105C0BE282863B
:104890009DDF106EDF50E8241010DF6E8296010E4F
:1048A000DB2AE9D79498FE0EDB5002E0828801D023
:1048B000829882868296DF50106E020EE15C02E2E0
:1048C000E16AE552E16E1050E552E7CFD9FF1200E0
:1048D000D9CFE6FFE1CFD9FF7CDFD00EE66E89DFCE
:1048E000E552FE0EDBCFE6FF84DFE552FD0EDBCFA7
:1048F000E6FF2DDFE552E66E7CDFE55274DFE55220
:10490000E7CFD9FF1200D9CFE6FFE1CFD9FFE652BA
:1049100060DFD00EE66E6DDFE552FE0EDBCFE6FF08
:1049200068DFE55256DFD10EE66E63DFE552010E19
:10493000E66E97DFE552DF6EDFCFE6FFE9DEE55298
:10494000DF6E51DFDF50E552E552E7CFD9FF1200AD
:10495000F28ED08EF28C1200F19CF292F28812004C
:10496000D8CFE4FFE0CFE4FFE46EDACFE4FFE2CF9C
:10497000DAFFE9CFE4FFEACFE4FFF6CFE4FFF7CFB9
:10498000E4FFF5CFE4FFF3CFE4FFF4CFE4FFFACF89
:10499000E4FF00EE00F0100EE80403E3EECFE4FFC6
:1049A000FBD700EE10F00A0EE80403E3EECFE4FFBD
:1049B000FBD7E652F2A407D054EC21F0F29456EC67
:1049C00021F000EC23F09EA007D03FEC22F09E9057
:1049D000F9EC21F00EEC23F09EA207D05BEC22F064
:1049E0009E9257EC22F01CEC23F0A1A207D0FEEC23
:1049F00022F0A192B8EC22F02AEC23F0F2B2F2926B
:104A00009EAA03D09E9AF6EC26F0E55200EE19F02D
:104A10000A0EE80403E3E5CFEDFFFBD700EE0FF04D
:104A2000100EE80403E3E5CFEDFFFBD7E5CFFAFF77
:104A3000E5CFF4FFE5CFF3FFE5CFF5FFE5CFF7FFD7
:104A4000E5CFF6FFE5CFEAFFE5CFE9FFE5CFDAFFF7
:104A5000E550E5CFE0FFE5CFD8FF1000DACFE4FF67
:104A6000E2CFDAFFE9CFE4FFEACFE4FFF6CFE4FFDD
:104A7000F7CFE4FFF5CFE4FFF3CFE4FFF4CFE4FF9B
:104A8000FACFE4FF00EE00F0100EE80403E3EECFEF
:104A9000E4FFFBD700EE10F00A0EE80403E3EECFCC
:104AA000E4FFFBD7E652F2A407D054EC21F0F294D5
:104AB00056EC21F000EC23F09EA007D03FEC22F052
:104AC0009E90F9EC21F00EEC23F09EA207D05BEC57
:104AD00022F09E9257EC22F01CEC23F0A1A207D00A
:104AE000FEEC22F0A192B8EC22F02AEC23F0F2B214
:104AF000F2929EAA03D09E9AF6EC26F0E55200EEC2
:104B000019F00A0EE80403E3E5CFEDFFFBD700EE52
:104B10000FF0100EE80403E3E5CFEDFFFBD7E5CF80
:104B2000FAFFE5CFF4FFE5CFF3FFE5CFF5FFE5CFE3
:104B3000F7FFE5CFF6FFE5CFEAFFE5CFE9FFE5CFE9
:044B4000DAFF110087
:0C4B44003A002F002020202020202020FC
:104B50002020202020202020005052455353202385
:104B600020464F52205041535300233A5354415250
:104B70005400433A534C4F5700423A4D414E004186
:104B80003A5345540020202020202020202020209F
:104B90002020202020005045444553545249414E86
:104BA000204D4F444500534C4F5720444F574E0023
:104BB0005048415345323A2059454C4C4F570050CC
:104BC00048415345323A20475245454E00504841EE
:104BD0005345313A20524544005048415345313AFB
:104BE0002059454C4C4F57005048415345323A20CC
:104BF000524544005048415345313A2047524545BB
:104C00004E0054494D45204E4F5420414C52454191
:104C10004459005048415345325F59454C4C4F5719
:104C20003A005048415345325F475245454E3A009D
:104C300028312D3929005048415345315F59454CA1
:104C40004C4F573A002831302D3930290050484117
:104C50005345315F475245454E3A005052455353F4
:104C600020230050415353574F52442057524F4E28
:104C700047002A2A2A2A005F002A2A2A005F5F00AA
:104C80002A2A005F5F5F002A005F5F5F5F00454E7A
:0D4C90005445522050415353574F52440099
:014C9D000016
:024C9E00B06AFA
:104CA000810EAF6EAC8AAC94B886AC98AB8EAB88F4
:104CB0009E9A9D8A9F9A949C948E1200D9CFE6FF6B
:104CC000E1CFD9FF040EE126DE6ADD6ADECF10F007
:104CD000DDCF11F0FD0EDBCF12F0FE0EDBCF13F0B7
:104CE00011501318E8AE02D0133404D01250105CE7
:104CF000135011581DE2020EDB6A030EDB6A020E2E
:104D0000DBCF10F0030EDBCF11F0D890115004E68A
:104D1000EE0E105C000E115806E2020EDB2A030EA6
:104D2000EEE3DB2AECD7DF2A010ED0E3DB2ACED775
:104D3000040EE15C02E2E16AE552E16EE552E7CF82
:104D4000D9FF1200D9CFE6FFE1CFD9FF9EA8FED749
:104D5000FE0EDB50AD6E9E98E552E7CFD9FF1200F4
:104D6000D9CFE6FFE1CFD9FFFD0EDBCFE9FFFE0E85
:104D7000DBCFEAFFEF5010E0FD0EDBCFE9FFFE0EC8
:104D8000DBCFEAFFEF50E66EDDDFE552FD0EDB2AFA
:104D9000FE0EEAE3DB2AE8D7E552E7CFD9FF12009F
:104DA000D9CFE6FFE1CFD9FFFD0EDBCFF6FFFE0E38
:104DB000DBCFF7FF0800F55015E0FD0EDBCFF6FF67
:104DC000FE0EDBCFF7FF0800F550E66EBBDFE552C5
:104DD000FD0EDBCFF6FFDB2AFE0EDBCFF7FFE4E3B1
:104DE000DB2AE2D7E552E7CFD9FF1200F8EF26F031
:104DF000D9CFE6FFE1CFD9FFE652AE50DF6EDFCF6D
:104E0000E6FFA2EC26F0E5520F016351050A2AE005
:104E1000010A21E0070A11E0010A0AE0020A02E0A1
:104E2000010A2AE1FF0EDF5C28E1666B020E22D048
:104E3000FF0EDF5C15E1030E1DD06651EA6A810F9B
:104E4000E96E000EEA22DFCFEFFF662B6851665D48
:104E500014E3040E0FD0FE0EDF5C02E1050E0AD053
:104E6000010E08D0FE0EDF5C04E1010E646F636B7F
:104E700004D0010E636F01D0636BE552E552E7CFBA
:104E8000D9FF120012000F0164054AE1850EE66E9B
:104E90004B0EE66EE66AE66A24EC16F0E552E55241
:104EA000E552E5520001806B0F0168510001805D01
:104EB00021E28051EA6A810FE96E000EEA22EFCF0B
:104EC00010F0116A126A136A10C0E6FF11C0E6FF03
:104ED00012C0E6FF13C0E6FF030E8003F350E66E38
:104EE000E66AFDEC14F0146E060EE15E145000014B
:104EF000802BDAD763CF10F0116A126A136A63CF7E
:104F0000E6FF11C0E6FF12C0E6FF13C0E6FF0F0E7A
:104F1000E66EE66AFDEC14F0146E060EE15E1450C7
:024F200012007D
:0E4F2200006A0EAE97EF27F00E6C001E09AE6F
:104F30009CEF27F0096C001E5EEC29F009BEA6EF7D
:104F400027F000AE000C096C056C000C00BEA3EF4E
:104F500027F00188FF0C006A0EAEB4EF27F00D6C4D
:104F60000E1EE86A0E22001E09AEBCEF27F0086C88
:104F7000091EE86A0922001E2AEC29F009BECCEFBE
:104F800027F000AE000C086C091EE86A0922046CC8
:104F9000051EE86A0522000C00BEC3EF27F0018859
:104FA000FF0C006A0EAEDCEF27F00C6C0D1E0E1E1F
:104FB000E86A0D220E22001E09AEE6EF27F0076C0C
:104FC000081E091EE86A08220922001EF1EC28F0DA
:104FD00009BEF9EF27F000AE000C076C081E091E91
:104FE000E86A08220922036C041E051E0422052219
:0C4FF000000C00BEEDEF27F00188FF0C64
:044FFC001E0EF66E21
:10500000000EF76E000EF86E0F010900F550796F73
:105010000900F5507A6F03E1796701D03DD00900AE
:10502000F550746F0900F550756F0900F550766FF3
:1050300009000900F550E96E0900F550EA6E090013
:1050400009000900F550776F0900F550786F0900E5
:105050000900F6CF7BFFF7CF7CFFF8CF7DFF74CF41
:10506000F6FF75CFF7FF76CFF8FF0F01775302E118
:10507000785307E00900F550EE6E7707F8E27807FD
:10508000F9D77BCFF6FF7CCFF7FF7DCFF8FF0F017D
:0A5090007907000E7A5BBFD712000B
:06509A00010E926E0E0EE5
:1050A000C16EC26A040EC06EC2801200D9CFE6FF84
:1050B000E1CFD9FF020EE126DE6ADD6AC282C2B20A
:1050C000FED7C450DE6EDD6ADECF12F0DDCF13F006
:1050D000D89012361336D89012361336060EC3CF38
:1050E000E7FF070B04E0E742E79EE806FCE1E75034
:1050F0001224106E000E132010C0DEFFDD6EDECF16
:10510000E5F0DDCFE6F0DECF10F0DDCF11F010C01E
:10511000F3FF11C0F4FF020EE15C02E2E16AE55226
:0A512000E16EE552E7CFD9FF12005F
:06512A0006500B02F3CF5A
:1051300002F0F4CF03F00C02F3500326000EF4202B
:10514000046E06500D02F3500426000EF420056E86
:1051500006500E02F350052607500B02F3500326AB
:10516000F4500422000E052207500C02F3500426CE
:10517000F450052207500D02F350052608500B028B
:10518000F3500426F450052208500C02F350052673
:0A51900009500B02F350052612002F
:06519A00056A046A036AC5
:1051A000026A200EE76ED8900636073608360936B2
:1051B00002360336043605360B50025C0C50035899
:1051C0000D5004580E50055809E30B50025E0C5068
:1051D000035A0D50045A0E50055A062AE72EE4D7FA
:0251E0001200BB
:0E51E200056A046A036A180EE76ED890073655
:1051F000083609360336043605360C50035C0D506C
:1052000004580E50055807E30C50035E0D50045A25
:0C5210000E50055A072AE72EEAD71200BC
:04521C00CA94CA90D6
:10522000CA829B0ECB6EBD98BD9ABE6ABD9CBD9EC8
:10523000BD90BD92BD84BD869494CA841200D9CF1E
:10524000E6FFE1CFD9FFFE0EDB50BE6EE552E7CFA1
:04525000D9FF120070
:0C525400056A046A100EE76ED890083658
:105260000936043605360D50045C0E50055805E32A
:105270000D50045E0E50055A082AE72EF0D7120092
:10528000800EF36E00EE00F00F0E01D81200EA60FF
:1052900002D0EE6AFCD7F350E9601200EE6AFCD748
:1052A0001EEE00F02EEE00F0F86A019CFEEC27F0F6
:0C52B00003EC00F054EC1EF0FBD71200E1
:0452BC00056A080E69
:1052C000E76ED890093605360E50055C02E3056E90
:0852D000092AE72EF7D71200AE
:0852D8000000000000000000CE
:1052E00000000000000000000000000000000000BE
:0852F0000100010001000100B2
:0852F8000000000000000005A9
:0B53000005000000000000000000009D
:05530B0001020408107E
:0D531000204080039F250D9949411F010990
:03531D000000008D
:1053200000000000001010101010101010181818B5
:1053300018181818181C1C1C1C1C1C1C1C1E1E1EBB
:105340001E1E1E1E1E1F1F1F1F1F1F1F1F000000CF
:10535000000000000000000000000000000000004D
:10536000000000000000000000000000000000003D
:0E53700000000000000000000000000000002F
:02537E0000002D
:1053800000000000000000000032000000002800C3
:10539000000000000000000000000000000000000D
:1053A00000000000000102030402070809030303D0
:0B53B00003040806080541424300000A
:0553BB000000000000ED
:1053C00000000000000000000000000000000000DD
:1053D00000000000000000000000001020408001DC
:1053E0000204080102034104050642070809432A92
:0353F00000454431
:020000040030CA
:0100010002FC
:0100020003FA
:010003001EDE
:010005008179
:010006008178
:010008000FE8
:01000900C036
:01000A000FE6
:01000B00E014
:01000C000FE4
:01000D0040B2
:00000001FF
